:020000040800F2
:10000000E8800020597D0008292300082B230008E0
:1000100033230008372300083B23000800000000BA
:10002000000000000000000000000000990200082D
:100030003F23000800000000ED0200080DB000089A
:10004000737D0008737D0008737D0008737D0008D0
:10005000737D0008737D0008737D0008737D0008C0
:10006000737D0008737D0008737D0008737D0008B0
:10007000737D0008737D0008737D0008737D0008A0
:10008000B53B0008737D0008737D00085504000827
:10009000E1040008737D0008737D0008737D00088B
:1000A000737D0008737D0008737D0008737D000870
:1000B000737D0008737D00086D180008737D0008CB
:1000C000737D0008737D0008737D0008737D000850
:1000D000737D0008737D0008737D0008F53D0008FE
:1000E000D3270008737D0008737D0008737D000826
:1000F000737D0008737D0008737D0008737D000820
:10010000737D0008737D0008737D0008737D00080F
:10011000737D0008737D0008737D0008737D0008FF
:10012000737D0008737D0008A3360008737D000806
:10013000737D0008737D0008737D0008737D0008DF
:1001400015150008737D0008737D0008737D000895
:10015000737D0008737D0008737D000873980008A4
:10016000737D0008737D0008737D0008737D0008AF
:10017000737D0008737D0008737D00080000000097
:10018000737D0008737D0008737D0008737D00088F
:10019000737D0008737D0008737D0008737D00087F
:1001A0000000000000000000737D000800F002F86D
:1001B00000F060F80AA090E8000C82448344AAF1A1
:1001C0000107DA4501D100F055F8AFF2090EBAE89F
:1001D0000F0013F0010F18BFFB1A43F0010318477B
:1001E0003CEA00005CEA00000A444FF0000C10F802
:1001F000013B13F0070408BF10F8014B1D1108BFA5
:1002000010F8015B641E05D010F8016B641E01F844
:10021000016BF9D113F0080F1EBF10F8014BAD1C94
:100220000C1B09D16D1E58BF01F801CBFAD505E0B2
:1002300014F8016B01F8016B6D1EF9D59142D6D30C
:10024000704700000023002400250026103A28BF34
:1002500078C1FBD8520728BF30C148BF0B60704738
:100260001FB50EF042FB9DE803000DF015FD1FBD0C
:1002700010B510BD0DF08EFD1146FFF7F1FF02F035
:100280002BF80DF0ACFD03B4FFF7F2FF03BC0DF04B
:10029000D9FD0000704700002A4B19680868B0E8D3
:1002A000F04F80F30988BFF36F8F4FF0000080F3A9
:1002B000118870470000000006480068006880F35D
:1002C000088862B661B6BFF34F8FBFF36F8F00DF50
:1002D00000BF00BF08ED00E0DFF80C00016841F44A
:1002E00070010160704700BF88ED00E0EFF3098006
:1002F000BFF36F8F134B1A681EF0100F08BF20ED6D
:10030000108A20E9F04F106008B44FF0500080F3DD
:100310001188BFF34F8FBFF36F8F0CF025F94FF0AB
:10032000000080F3118808BC19680868B0E8F04F35
:100330001EF0100F08BFB0EC108A80F30988BFF3DD
:100340006F8F7047B80B0020EFF3058070470000F7
:1003500000B58BB00121082005F053FE01214806AD
:1003600005F096FE09220121FE4806F034FE09221E
:100370000021FC4806F02FFE0320029002208DF899
:100380000C0002A9F74806F09BFD14208DF804002C
:1003900002208DF8050001208DF806008DF8070079
:1003A00001A804F094FD13208DF8040001208DF8BD
:1003B00005008DF806008DF8070001A804F087FD00
:1003C000E94805F071FF08A806F092F800208DF8C2
:1003D00026008DF827008DF828008DF829008DF86B
:1003E0002A0001208DF82B0000208DF822008DF8C6
:1003F000230008208DF8240003208DF82500ADF897
:10040000200008A9D84805F068FF00208DF81A00E0
:100410008DF81B0001208DF81C000020ADF81000A5
:10042000ADF81200ADF81400ADF81600ADF81800E4
:1004300001208DF81D0004A805F0D9FF012202213A
:10044000C94806F0D3FA01221146C74806F0CEFA91
:100450000BB000BD10B50121C34806F02FFB18B149
:100460000121C14806F0C5FB10BDB0EE402A90ED59
:10047000010A80ED000A80ED012A90ED010AD0ED1D
:10048000002A30EE620AF0EE401AF4EEC11AF1EEE4
:1004900010FA0BDD90ED010ADFEDB42A30EE620AAE
:1004A000D0ED002A30EE620AF0EE401AB1EE410AB9
:1004B000F4EEC01AF1EE10FA0BD290ED000ADFED67
:1004C000AB2A32EEC00AD0ED012A30EE220AF0EE5D
:1004D000401A31EEA00AF0EE400AB0EE600A704712
:1004E00010B586B0002402219F4806F0E7FA0028E4
:1004F0007ED002219C4806F07CFB01AA00219A488C
:1005000006F059F940F201210198884250D19DF836
:1005100010009DF80F1040EA012000B294490880B5
:100520000846B0F9000000EE100AB8EEC00ADFED90
:100530008F0A20EE200ADFED8F0A80EE201ABDEE32
:10054000C10A10EE100A00B208809DF812109DF842
:10055000110041EA002000B287490880874890EDE9
:10056000001AB8EEC11AF0EE410A8148B0F9000055
:1005700001EE100AB8EEC11AB0EE410A9FED801AE2
:100580008048FFF772FFBDEEC00A7C4880ED000A8C
:1005900090ED000AB8EEC00ADFED7B0A20EE200ADB
:1005A000BDEEC00A10EE100A00B27149088018E1D1
:1005B00040F202210198884253D19DF810009DF825
:1005C0000F1040EA012000B2694948800846B0F99E
:1005D000020000EE100AB8EEC00ADFED640A20EE59
:1005E000200ADFED640A80EE201ABDEEC10A00E0A9
:1005F0002BE110EE100A00B248809DF812109DF811
:10060000110041EA002000B25B4948805B4890ED50
:10061000011AB8EEC11AF0EE410A5548B0F90200CD
:1006200001EE100AB8EEC11AB0EE410A9FED541A5D
:1006300054480830FFF719FFBDEEC00A4F4880ED5F
:10064000010A90ED010AB8EEC00ADFED4F0A20EE74
:10065000200ABDEEC00A10EE100A00B244494880DC
:10066000BFE040F203210198884251D19DF810006B
:100670009DF80F1040EA012000B23D4988800846ED
:10068000B0F9040000EE100AB8EEC00ADFED370A38
:1006900020EE200ADFED370A80EE201ABDEEC10AF7
:1006A00010EE100A00B288809DF812109DF811001B
:1006B00041EA002000B230498880304890ED021AAB
:1006C000B8EEC11AF0EE410A2948B0F9040001EE73
:1006D000100AB8EEC11AB0EE410A9FED291A294856
:1006E0001030FFF7C2FEBDEEC00A244880ED020ABA
:1006F00090ED020AB8EEC00ADFED230A20EE200AD0
:10070000BDEEC00A10EE100A00B21949888068E0F8
:100710000198B0F5017F64D19DF810009DF80F108D
:1007200040EA012000B21249C8800846B0F906002C
:1007300000EE100AB8EEC00ADFED0C0A20EE200A27
:10074000DFED0C0A80EE201ABDEEC10A10EE100A91
:1007500000B2C8809DF812109DF8110041EA0020F7
:1007600000B213E0000C0240006400400000B443FB
:10077000000C002000F8FF450A0C0020140C00209B
:1007800000009643280C00208716593D4749C88031
:10079000474890ED031AB8EEC11AF0EE410A4548F9
:1007A000B0F9060001EE100AB8EEC11AB0EE410A27
:1007B0001FED0D1A4048FFF758FEBDEEC00A3C4839
:1007C00080ED030A90ED030AB8EEC00A5FED120A4D
:1007D00020EE200ABDEEC00A10EE100A00B2354924
:1007E000C88000242CE0334830F9140047F230511F
:1007F000884205DC2F4830F91400494288421DDA4E
:1008000000202C4921F81400294941F824009FEDCB
:100810002B0B2C4800EBC40080ED000B9FED2A0A47
:100820002548183800EBC40080ED000A9FED260A29
:100830002148183800EBC40080ED010A601CC4B2E6
:10084000052CD0DB01202149086006B010BDF0B5B1
:1008500085B004460D4616461F464FF400700090C2
:1008600000208DF808008DF8090008208DF80A0096
:10087000200A8DF80B00E1B28DF80C10290A8DF8D2
:100880000D10E9B28DF80E10310A8DF80F10F1B28B
:100890008DF81010390A8DF81110F9B28DF8121078
:1008A00069460B4805F092FE05B0F0BD0A0C002029
:1008B000140C0020000C0020400C00200000000060
:1008C00000000000500C0020000000001C00002070
:1008D0000064004010B5FFF73BFD00BF034800680F
:1008E0000028FBD00124204610BD00001C00002081
:1008F000FE4890ED000AFE4880ED000A704770B592
:100900002DED088B9FEDFB0AB0EE408A502008EEDB
:10091000900A43F2B065002400BF34E0F64800EBD3
:10092000840090ED000A10EE101A08460DF06CFFDE
:1009300041EC1B0BF14800EBC40090ED001BB0EE46
:10094000410AF0EE610A53EC102B51EC1B0B0DF039
:1009500031FD41EC1A0B0DF09BFA09EE100AB0EED6
:10096000490A09F083FBE64800EB840080ED000AA9
:10097000E34800EB840090ED000A30EE080AB0EE88
:10098000408A601CC4B2042CC8DBB5EEC08AF1EE0C
:1009900010FA16D0002411E0D94800EB840090ED45
:1009A000000AF8EEE80A20EE200AC0EE080AD54850
:1009B00000EB8400C0ED000A601CC4B2042CEBDB29
:1009C0001AE0CD4890ED000ACF4880ED000ACA48F1
:1009D00090ED010ACC4880ED010AC74890ED020A6B
:1009E000C94880ED020AC44890ED030AC64880ED6C
:1009F000030ABDEC088B70BDC24890ED000ADFED24
:100A0000C30A20EE200ADFEDC20A80EE201AB2EE01
:100A1000040A21EE000ABF4880ED000AB94890EDB3
:100A2000010ADFEDBA0A20EE200A9FEDB91AC0EEE6
:100A3000010AB2EE040A20EE800AB64880ED010AEF
:100A4000B04890ED020ADFEDB10A60EE200A9FED9A
:100A5000B01A80EE810AF2EE040A20EE200AAD48B8
:100A600080ED020AA74890ED030ADFEDA80A20EE08
:100A7000200A9FEDA71AC0EE010AB2EE040A20EE8A
:100A8000800AA44880ED030A00249DE0A24830F8C3
:100A90001400E0B3984800EB8400D0ED000A9E48B3
:100AA00030F9140000EE100AB8EEC00A20EE800AF9
:100AB000984800EB8400D0ED000AB4EEE00AF1EEB5
:100AC00010FA12DD934800EB8400D0ED000A924842
:100AD00030F9140000EE100AB8EEC00A80EE801A59
:100AE000854800EB840080ED001A834800EB840009
:100AF000D0ED000A884830F9140000EE100AB8EE74
:100B0000C00A20EE800A834800EB840000E01DE06C
:100B1000D0ED000AF1EE600AB4EEE00AF1EE10FA50
:100B200014D27C4800EB840090ED000AF1EE400AFC
:100B3000794830F9140000EE100AB8EEC00A80EED1
:100B4000801A6D4800EB840080ED001A6A4800EBC3
:100B50008400D0ED000A00EE105AB8EEC00AF4EEA0
:100B6000C00AF1EE10FA04DD00EE105AB8EEC00A29
:100B700004E0614800EB840090ED000A624800EB5D
:100B8000840080ED000A5C4800EB8400D0ED000A90
:100B9000684200EE100AB8EEC00AF4EEC00AF1EEA8
:100BA00010FA05D2684200EE100AB8EEC00A04E05E
:100BB000514800EB840090ED000A534800EB84009C
:100BC00080ED000A601CC4B2042CFFF65FAF00BFCA
:100BD0000FE72DED048B82B00020019000BF0BF0D9
:100BE000C7FE019001F07DFD4C4890ED000ADFED5D
:100BF0004C0A30EE200A80ED000A4A48008800289E
:100C000072D14948006840B9484890ED000ADFEDCC
:100C1000480A30EE200A80ED000A434800680128A7
:100C200008D1424890ED000ADFED410A30EE600A3B
:100C300080ED000A3D4890ED000AF2EE000AB4EEA5
:100C4000E00AF1EE10FA02DB01203749086037486C
:100C500090ED000AFAEE000AB4EEE00AF1EE10FAA6
:100C600002D80020304908603248007BF8B12F4894
:100C700090ED000AB5EEC00AF1EE10FA0BDD2E4839
:100C8000B0F900003C3000EE100AB8EEC00A2B4864
:100C900080ED000A15E02848B0F900003C3800EE6D
:100CA000100AB8EEC00A254880ED000A09E0224883
:100CB000B0F9000000EE100AB8EEC00A1F4880ED3F
:100CC000000A1E4890ED000A1D4880ED000A1D48EC
:100CD000B0F9000000EE100AB8EEC00A184880ED26
:100CE000010AB7EE000A2FE03DE00000EC0600200C
:100CF0005C00002000000000B80C0020500C002018
:100D0000580D0020380D0020C80C00200034154676
:100D10009A99993E680D00200A0C002028040020B2
:100D20000AD7A33B08020020A4010020A001002054
:100D30000AD7233C2E0E0020F8010020FC010020E1
:100D400020000020B801002009F091FDFE4890ED40
:100D50000D0AB1EE400AFD48D0ED000A30EE200A3F
:100D6000FB4880ED000AFB4890ED000AFA48D0ED00
:100D7000000A30EE600AF648D0ED000A30EE600A54
:100D8000F2EE040A20EE200A10EE101A08460DF0CA
:100D90003BFDF24A03C2EF4890ED000AB1EE400A73
:100DA000ED48D0ED000A30EE600AE948D0ED000AC7
:100DB00030EE600AF2EE040A20EE200A10EE101A5D
:100DC00008460DF021FDE54AC2E90201E14890ED37
:100DD000000AE148D0ED000A30EE200ADC48D0EDF0
:100DE000000A30EE600AF2EE040A20EE200A10EE4D
:100DF000101A08460DF008FDD84AC2E90401D5488A
:100E000090ED000AB1EE400AD348D0ED000A30EE72
:100E1000200ACF48D0ED000A30EE600AF2EE040A54
:100E200020EE200A10EE101A08460DF0EDFCCB4A19
:100E3000C2E90601CA4890ED000AB1EE400A10EE80
:100E4000100A0DF0E1FC41EC190BC44890ED001BB9
:100E5000B0EE410AF0EE610A53EC102B51EC190B85
:100E60000DF0A6FB09D2BE4890ED000AB1EE400A93
:100E700010EE100A0DF0C8FC1AE0B94800680DF039
:100E8000C3FC41EC190BB54890ED001BB0EE410AD4
:100E9000F0EE610A53EC102B51EC190B0DF04EFAE9
:100EA00004D2AF4800680DF0AFFC01E0AB4803C8C6
:100EB000AA4A03C2AA4890ED000AB1EE400A10EE19
:100EC000100A0DF0A1FC41EC190BA44890ED021B97
:100ED000B0EE410AF0EE610A53EC102B51EC190B05
:100EE0000DF066FB09D29E4890ED000AB1EE400A73
:100EF00010EE100A0DF088FC1BE0994800680DF018
:100F000083FC41EC190B954890ED021BB0EE410AB1
:100F1000F0EE610A53EC102B51EC190B0DF00EFAA8
:100F200004D28F4800680DF06FFC02E08B48C16866
:100F300080688A4AC2E90201894890ED000AB1EE50
:100F4000400A10EE100A0DF05FFC41EC190B8348CB
:100F500090ED041BB0EE410AF0EE610A53EC102B49
:100F600051EC190B0DF024FB09D27D4890ED000ADD
:100F7000B1EE400A10EE100A0DF046FC1BE0784876
:100F800000680DF041FC41EC190B744890ED041B16
:100F9000B0EE410AF0EE610A53EC102B51EC190B44
:100FA0000DF0CCF904D26E4800680DF02DFC02E083
:100FB0006A4841690069694AC2E90401684890EDDC
:100FC000000AB1EE400A10EE100A0DF01DFC41ECD3
:100FD000190B624890ED061BB0EE410AF0EE610A73
:100FE00053EC102B51EC190B0DF0E2FA09D25C48CE
:100FF00090ED000AB1EE400A10EE100A0DF004FC6C
:101000001BE0574800680DF0FFFB41EC190B5348FB
:1010100090ED061BB0EE410AF0EE610A53EC102B86
:1010200051EC190B0DF08AF904D24D4800680DF00F
:10103000EBFB02E04948C1698069484AC2E9060100
:10104000104690ED001BB0EE410AF0EE610A51EC43
:10105000100B0CF01DFF43490860404890ED021B47
:10106000B0EE410AF0EE610A51EC100B0CF010FFEB
:101070003D490860394890ED041BB0EE410AF0EE9E
:10108000610A51EC100B0CF003FF3849086033483B
:1010900090ED061BB0EE410AF0EE610A51EC100B28
:1010A0000CF0F6FE32490860B7EE008A3148B0F91C
:1010B000000000EE100AB8EEC00A2A4880ED010ACE
:1010C0002C48B0F9020000EE100AB8EEC00A26481B
:1010D00080ED010A2748B0F9040000EE100AB8EECE
:1010E000C00A224880ED010A2248B0F9060000EE4D
:1010F000100AB8EEC00A084680ED010AB0EE480AB0
:10110000184809F0B4FBB0EE480A174809F0AFFBE5
:10111000B0EE480A154809F0AAFBB0EE480A144898
:1011200009F0A5FB0F4890ED0D0A134880ED000A69
:101130000D4890ED0D0A104880ED010A0B4890ED26
:101140000D0A0D481AE00000200000203C04002099
:10115000940100204404002048040020500C00208A
:101160008C01002098000020D400002010010020F5
:101170004C0100200A0C0020B80C002080ED020A6F
:10118000544890ED0D0A544880ED030AFFF7B7FB71
:10119000002414E0514901EB8401D1ED000AB0EEC6
:1011A000600A04EB44014E4A02EBC100062108F03C
:1011B000FDFC4A4800EB840080ED000A641C032C0F
:1011C000E8DB464C94ED030ABDEEC00A10EE104A6F
:1011D00023B2424C94ED020ABDEEC00A10EE104A52
:1011E00022B23E4C94ED010ABDEEC00A10EE104A48
:1011F00021B23A4C94ED000ABDEEC00A10EE104A3E
:1012000020B2FFF724FB052101A80BF032F8E6E439
:1012100010B52DED028BB0EE408AF0EE608AB5EE8F
:10122000C08AF1EE10FA3ED1F5EEC08AF1EE10FA66
:1012300039D12C480068B0BB2B4809F078FC2B480A
:1012400009F075FC2A4809F072FC224809F06FFC8D
:101250002848B0F9000000EE100AB8EEC00A224893
:1012600080ED000A2348B0F9020000EE100AB8EE43
:10127000C00A1E4880ED000A1E48B0F9040000EEC6
:10128000100AB8EEC00A1A4880ED000A1948B0F9F1
:10129000060000EE100AB8EEC00A0E4880ED000A03
:1012A000012010490860144890ED000AB5EEC00A0C
:1012B000F1EE10FA07D1114890ED000AB5EEC00A20
:1012C000F1EE10FA02D0002006490860BDEC028B56
:1012D00010BD00004C010020B80C0020C80C0020FC
:1012E000D80C0020AC01002098000020D400002081
:1012F000100100200A0C00204404002048040020B3
:1013000000B58BB00121022004F07BFE01214806CC
:1013100004F0BEFE0121880604F0BAFE09220C2169
:10132000FE4805F058FE09220D21FC4805F053FE49
:101330004FF44050029002208DF80C0002A9F748AB
:1013400005F0BEFD40208DF8040000208DF805005A
:101350008DF8060001208DF8070001A803F0B7FD05
:10136000EF4804F0A1FF08A805F0C2F800208DF8AE
:1013700026008DF827008DF828008DF829008DF8BB
:101380002A0001208DF82B0000208DF822008DF816
:10139000230008208DF8240003208DF82500ADF8E7
:1013A000200008A9DE4804F098FF0E208DF81A00EE
:1013B00000208DF81B0001208DF81C000020ADF8E6
:1013C0001000ADF81200ADF81400ADF81600ADF83D
:1013D000180001208DF81D0004A805F008F801226E
:1013E0000221CF4805F002FB0BB000BDF0B585B07F
:1013F00004460D4616461F464FF40070009000202C
:101400008DF808008DF8090008208DF80A00200AE0
:101410008DF80B00E1B28DF80C10290A8DF80D1033
:10142000E9B28DF80E10310A8DF80F10F1B28DF877
:101430001010390A8DF81110F9B28DF812106946A2
:10144000B74805F0C3F805B0F0BD30B585B0044627
:101450000D4640F2FF10009000208DF808008DF836
:10146000090008208DF80A00200A8DF80B00E1B26F
:101470008DF80C10290A8DF80D10E9B28DF80E10B8
:1014800000218DF80F108DF810108DF811108DF8C7
:1014900012106946A24805F099F805B030BDB0EECB
:1014A000402A90ED010A80ED000A80ED012A90EDBE
:1014B000010AD0ED002A30EE620AF0EE401AF4EE96
:1014C000C11AF1EE10FA0BDD90ED010ADFED952A5D
:1014D00030EE620AD0ED002A30EE620AF0EE401AD9
:1014E000B1EE410AF4EEC01AF1EE10FA0BD290ED13
:1014F000000ADFED8C2A32EEC00AD0ED012A30EE70
:10150000220AF0EE401A31EEA00AF0EE400AB0EEE8
:10151000600A704700B585B00221814805F0CEFA17
:1015200000287DD002217E4805F063FB6A46002139
:101530007B4805F040F980217B4805F03FFD40F2F3
:101540000521009888424DD19DF80C009DF80B10A4
:1015500040EA012000B2754948800846B0F902000F
:1015600000EE100AB8EEC00ADFED6E0A20EE200A87
:10157000DFED6F0A80EE201ABDEEC10A10EE100AF0
:1015800000B248809DF80E109DF80D0041EA002041
:1015900000B268494880684890ED011AB8EEC11A57
:1015A000F0EE410A6148B0F9020001EE100AB8EE0F
:1015B000C11AB0EE410A9FED611A6148FFF76FFF53
:1015C000BDEEC00A5C4880ED010A808800B2574930
:1015D0004880084640885B490880564840885A49F8
:1015E000088009E140F206210098884266D19DF802
:1015F0000C009DF80B1040EA012000B2534908810D
:101600000846B0F9080000EE100AB8EEC00ADFED97
:10161000450A20EE200ADFED460A80EE201A00E09F
:10162000EDE0BDEEC10A10EE100A00B20881484894
:1016300090ED041AB8EEC11AF0EE410A0846B0F96E
:10164000080001EE100AB8EEC11AB0EE410A9FED93
:101650003B1A4048FEF709FFBDEEC00A3C4880ED4A
:10166000040A90ED040AB8EEC00ADFED3B0A80EEF2
:10167000201ABDEEC10A10EE100A00B233490881EB
:101680009DF80E109DF80D0041EA002000B233498C
:1016900008812E48B0F9080000EE100AB8EEC00A22
:1016A0002F4880ED000A0846B0F9080000EE100A45
:1016B000B8EEC00A2B4880ED000A9DE040F20321FD
:1016C0000098884209D19DF80E109DF80D0041EA5E
:1016D000002000B2244908808EE00098B0F5017F18
:1016E00009D19DF80E109DF80D0041EA002000B2CE
:1016F0001D49488080E040F20121009888427BD15A
:101700009DF80C009DF80B1040EA012000B207493B
:1017100008800846B0F9000028E0000000040240FC
:10172000006800400000B44300100240C0010020E7
:1017300000F8FF45C8010020780D00200000964306
:10174000D8010020B8010020BA010020000C0020C0
:10175000140C0020480C00200000C0420A0C00209D
:101760000000002004000020F001002000EE100A1C
:10177000B8EEC00A5FED150A20EE200A5FED140AEC
:1017800080EE201ABDEEC10A10EE100A00B20880E9
:101790009DF80E109DF80D0041EA002000B23B4973
:1017A00008803B4890ED001AB8EEC11AF0EE410AED
:1017B0003848B0F9000001EE100AB8EEC11AB0EED8
:1017C000410A1FED221A3448FFF769FEBDEEC00A38
:1017D0002F4880ED000A008800B22E490880084694
:1017E000B0F90000132190FBF1F000B22B49088002
:1017F000264800882A49088001202A49086005B047
:1018000000BD1FB50121042004F042FC4FF4A0608C
:1018100003F058FB1E208DF8000001208DF8010018
:101820008DF802008DF80300684603F050FB292074
:10183000ADF804000020ADF80600ADF80C0040F251
:101840008F10029001A9184803F059FC1FBD10B574
:101850000121154803F0DCFC01221146124804F076
:10186000EFF80121104804F0FFF810BD10B5012178
:101870000D4804F0FCF838B101210B4804F008F9D8
:101880000121094804F0F0F810BD0000C801002053
:10189000780D0020C0010020D0010020BC010020F4
:1018A000BE010020F40100200008004010B5002017
:1018B00007490870FFF724FD00BF064800680028AC
:1018C000FBD00120024908700846007810BD0000D6
:1018D00000020020F401002010B52DED028BB0EEC7
:1018E000408AF7480078401CF5490870F54880EDBB
:1018F000008A084600780A2817D1F24890ED000ABD
:10190000F14880ED000AF14890ED000AF048D0ED72
:10191000000A30EE600AEC4880ED010AB7EE000ADA
:1019200008F0A5FF0020E6490870E74890ED0D0A91
:10193000E84880ED000AE84890ED000AE54880EDAF
:10194000010AB7EE000A08F092FFE24890ED0D0A96
:10195000DFEDE20AB4EEE00AF1EE10FA02D29FEDFA
:10196000DF0A0FE0DB4890ED0D0ADFEDDD0AB4EE93
:10197000E00AF1EE10FA02DD9FEDD90A02E0D54847
:1019800090ED0D0AB1EE400AD64880ED000ABDEC9C
:10199000028B10BD10B52DED088BB0EE408AD248F9
:1019A0000078401CD0490870D04880ED008A90ED46
:1019B000000ADFEDCF0AB4EEE00AF1EE10FA02DD24
:1019C0009FEDCB0A02E0C94890ED000AC74880EDC0
:1019D000000A90ED000ADFEDC70AB4EEE00AF1EE6E
:1019E00010FA02D29FEDC30A02E0C04890ED000A4F
:1019F000BE4880ED000ABC4800780E287DD1BE4864
:101A00000078E8B3BD48D0ED030AB0EE600A08F0F4
:101A10002DFBF7EE080AB4EEE00AF1EE10FA41D21F
:101A2000B648D0ED030AB0EE600A08F01FFBDFED08
:101A3000B40AB4EEE00AF1EE10FA33DDAF48D0EDAF
:101A4000030AB0EE600A08F011FB10EE104A2046BF
:101A50000CF0DAFE41EC1B0B9FEDAA0B53EC102BA4
:101A60000CF0A8FC41EC1A0B9FEDA80B53EC102BCB
:101A70000CF040FA41EC190B0CF00AFAA54900E011
:101A800023E008609D48D0ED030AB0EE600A08F03C
:101A9000EDFAA048D0ED000A80EE801A974880ED5C
:101AA000041A12E09548D0ED030AB0EE600A08F07F
:101AB000DDFADFED930AB4EEE00AF1EE10FA04D29B
:101AC0009FED950A8D4880ED040A8C48D0ED030AFD
:101AD000B0EE600A08F0CAFAF7EE080AB4EEE00ABF
:101AE000F1EE10FA04DD9FED8D0A844880ED040AC2
:101AF0007E4890ED000A814800E00EE080ED000A8B
:101B0000874890ED000A7D4880ED010AB7EE000A93
:101B100008F0ADFE002074490870784890ED030A83
:101B200010EE101A08460CF06FFE41EC190B9FEDF9
:101B30007D0B53EC102B0CF001FC01D2012000E0D6
:101B4000002000EE100AF8EEC08AB0EE680A08F035
:101B50008DFAB5EEC00AF1EE10FA04D09FED730ACB
:101B6000734880ED080A654890ED0D0A704880EDD5
:101B7000000A704890ED000A6D4880ED010AB7EE4A
:101B8000000A08F074FE6A4890ED0D0A6A4880ED7C
:101B9000000ABDEC088B10BD10B56848007801281C
:101BA00044D167480088E8BB664890ED000A664863
:101BB000D0ED000A30EE200A644880ED000A644847
:101BC00090ED000A6348D0ED000A30EE200A62482A
:101BD00080ED000A3F48D0ED030AB0EE600A08F03D
:101BE00045FAF6EE000AB4EEE00AF1EE10FA1DD264
:101BF0004248D0ED030AB0EE600A08F037FAF6EE7C
:101C0000000AB4EEE00AF1EE10FA0FD201204C49BE
:101C1000088000204949087002F040FE4F4890EDCE
:101C2000000A00E002E04E4880ED000A44480088C7
:101C3000012820D14B480078012805D100204949CE
:101C400008703F49088016E0444890ED000A444877
:101C5000D0ED000A30EE600ADFED430AB4EEE00A90
:101C6000F1EE10FA07DD02F019FE3C4890ED000A93
:101C70003B4880ED000A10BD10B52DED028BB0EE93
:101C8000408A3A480078012806D139490870002076
:101C900038490870FFF780FF2F48D0ED000AB0EEFA
:101CA000001A60EE810AB0EE600AFFF773FE274863
:101CB00090ED000AFFF710FEBDEC028B10BD000096
:101CC000F803002028020020C4020020EC060020B7
:101CD00004020020000300200807002000409CC5EB
:101CE00000409C4538020020F10300202C02002017
:101CF00000002042000020C2C80400207803002019
:101D0000CDCCCC3D3333333333B35940CDCCCCCCB5
:101D1000CC6C5540F4030020000034430000C8425E
:101D2000F4060020333333333333D33F0000000055
:101D3000B40300200C0700203C020020CA0400204D
:101D40004002002058040020CC0400205004002051
:101D50005C040020D004002054040020280400204B
:101D600004040020C4040020CDCCCC3EC9040020D3
:101D7000EA050020E905002010B5F948007801289F
:101D80002FD1F848008860BBF748D0ED030AB0EEC9
:101D9000600A08F06BF9F6EE000AB4EEE00AF1EE24
:101DA00010FA1ED2F148D0ED030AB0EE600A08F036
:101DB0005DF9F6EE000AB4EEE00AF1EE10FA10D288
:101DC0000120E84908800020E549087002F066FD1E
:101DD000E74890ED000AE74880ED000A0020E64958
:101DE0000870E048008801286DD1E4480078012897
:101DF00003D0E148007801284ED10020DF49087067
:101E00000120DD490870DE4890ED000ADD48D0ED84
:101E1000000A30EE600ADA4880ED000ADA4890EDF8
:101E2000000ADA48D0ED000A30EE600AD64880EDAC
:101E3000000A1FED420AD34880ED000A1FED450A53
:101E4000D24880ED000AC848D0ED030AB0EE600A1F
:101E500008F00CF9F6EE000AB4EEE00AF1EE10FA22
:101E600031D2C248D0ED030AB0EE600A08F0FEF8A5
:101E7000F6EE000AB4EEE00AF1EE10FA23D20020EA
:101E8000B8490880052002F097FAB94890ED000A99
:101E9000B84880ED000A16E0B54890ED000AB54854
:101EA000D0ED000A30EE600A5FED510AB4EEE00AB0
:101EB000F1EE10FA07DD02F0F1FCAD4890ED000AFA
:101EC000AC4880ED000A10BD10B52DED028B42E04C
:101ED000AF48B0F9000000EE100AB8EEC00AAD48F5
:101EE00080ED010AAC48B0F9000000EE100AB8EE2F
:101EF000C00AA84880ED000A08F002FCA54890ED51
:101F00000D0A5FED8A0AB4EEE00AF1EE10FA02D291
:101F10001FED8E0A0FE09F4890ED0D0A5FED900ACD
:101F2000B4EEE00AF1EE10FA02DD1FED930A02E0D2
:101F3000984890ED0D0AB0EE408A0021B1EE480AB3
:101F4000BDEEC00A10EE100A00B2FFF77EFA0520BF
:101F500000F09AFB00BF8E49B1F900108E4AB2F929
:101F60000020891A002907DD8949B1F900108A4A41
:101F7000B2F90020891A06E08749B1F90010844AB5
:101F8000B2F90020891A08460CF0C0F941EC180B90
:101F90009FED820B53EC102B0CF00AFB98D3814879
:101FA00090ED000A804880ED000A0A2000F06CFBEA
:101FB000BDEC028B10BD10B50446022C19D17B4834
:101FC00090ED000ADFED7A0A30EE200A794880EDC4
:101FD000000A764890ED000ADFED750A30EEC00A7F
:101FE000754880ED000A96206B490880FFF76CFF6A
:101FF0004EE0032C4CD1052000F046FB694890EDE3
:10200000000ABDEEC00A10EE100A00B26249088054
:102010000846B0F9000000EE100AB8EEC00A6348A6
:10202000D0ED000A30EE200A624880ED000A084632
:10203000B0F9000000EE100AB8EEC00A5B48D0ED1F
:10204000000A30EE600A5C4880ED000A052000F0CE
:102050001BFB0020594908800846B0F90000584988
:10206000B1F90010401A00EE100AB8EEC00A554847
:1020700080ED000A5148B0F900005349B1F9001051
:10208000084400EE100AB8EEC00A504880ED000A7D
:102090004148B0F9000000EE100AB8EEC00A4C4802
:1020A00080ED000A4548B0F9000000EE100AB8EED5
:1020B000C00A484880ED000A3748B0F9000000EE39
:1020C000100AB8EEC00A444880ED000A10BD2DE9A0
:1020D000F05F04460F464FF0000801254FF000095D
:1020E00000264FF0000A4FF0000B80E0BCBB06F565
:1020F000FA6001B200231A461846FFF777F902206A
:1021000000F0C2FA3548B0F9000000EE100AB8EE4F
:10211000C00A07F0ABFFDFED320AB4EEE00AF1EEE1
:1021200010FA01DD4FF0010B454500D1761C454505
:1021300006D1BBF1000F03D009F101000FFA80F9BD
:10214000A84613480088C01B05B2164890ED000A47
:10215000BDEEC00A10EE100A0FFA80FA47E041E027
:10216000CA04002040020020000300207803002061
:1021700028040020FC03002000040020C4040020E8
:1021800050040020D404002054040020D80400206F
:10219000B80100204C020020F801002000000000DF
:1021A0000000E03FEC060020040200200C020020AA
:1021B000000016431402002018020020FA0100203B
:1021C0001002002020020020120200201C02002029
:1021D000280200202C020020FC010020BA0100206F
:1021E00000009643012C02D10020BDE8F09FB9F514
:1021F000C87F03DAB6F5487FFFF678AF5046F4E7BC
:1022000010B5002437E02F4890ED000A2E4880EDED
:10221000010A9FED2E0A80ED000AB7EE000A08F0D1
:1022200026FB9FED2A0AFFF7B5FB274991ED0D0A22
:10223000BDEEC00A10EE101A08B200231A46194665
:10224000FFF7D4F8032000F01FFA2148B0F900008E
:1022500000EE100AB8EEC00A07F008FFDFED1D0A15
:10226000B4EEE00AF1EE10FA01D2601C04B2B4F54B
:10227000C87F00D121E01348D0ED000A9FED131A6A
:1022800070EEC10AB0EE600A07F0F0FEF0EE000A50
:10229000B4EEE00AF1EE10FAB5DC0D48B0F900003A
:1022A00000EE100AB8EEC00A07F0E0FEDFED090A02
:1022B000B4EEE00AF1EE10FAA5DC00BF0A2000F04F
:1022C000E3F910BDF40600207803002000000000B0
:1022D000BE010020000048431FB500F093F90C49EF
:1022E000087000BF0A4800780028FBD00020094A87
:1022F0000123CDE90120009303900346802206A12B
:10230000084809F04EFD0AF0CAFA002004B010BDDA
:102310000C0400200804002073746172745F7461FF
:10232000736B00008B240008704710B5FDF7B2FFF7
:1023300010BD00BFFEE700BFFEE700BFFEE770472D
:1023400008B50020009021E08148B0F900108148D4
:1023500090ED000ABDEEC00A10EE100A00B2FFF7C1
:1023600074F87D48B0F900307C48B0F900200021B5
:102370007B4890ED000ABDEEC00A10EE100A00B2D4
:10238000FFF734F80521684609F073FFDCE708B56C
:102390000020009007E09FED730AFFF76DFC052118
:1023A000684609F066FFF6E708B50020009007E0F0
:1023B000B7EE000A02F071FB0621684609F059FFEA
:1023C000F6E708B50020009017E0674890ED000A96
:1023D000DFED660A30EE600A80ED000A90ED000A3B
:1023E000B5EEC00AF1EE10FA03D29FED610A80ED5E
:1023F000000A3221684609F03CFFE6E708B50020F4
:10240000009041E000245B480078012802D144F0AC
:10241000010000E02046044657480078012802D118
:1024200044F0020000E020460446544800780128A9
:1024300002D144F0040000E0204604464E480078F3
:10244000012802D144F0080000E0204604464C4830
:10245000007810B944F0100001E044F02000044678
:1024600020469FED431A4049D1ED000A45490978BD
:1024700000EE101AB8EE400A01F0FFFB4FF47A713B
:10248000684609F0F6FE00BFBCE71FB5044608F039
:102490007AFD00203C4A0623CDE9012000930390F9
:1024A00003464FF4007239A13D4809F07AFC002040
:1024B0003C4A0523CDE901200093039003464FF4E5
:1024C000007239A1AFF2391009F06BFC00203B4AD1
:1024D0000523CDE901200093039003464FF40072D9
:1024E00037A1AFF23B1009F05CFC0020394A06230B
:1024F000CDE901200093039003464FF4007236A10A
:10250000AFF2C31009F04DFC0020364A0523CDE997
:102510000120009303900346802233A1AFF22310E1
:1025200009F03FFC0020334A0523CDE90120009348
:10253000039003464FF400722FA1AFF2791009F017
:1025400030FC002009F0ECFC08F044FD1FBD000049
:10255000180600203802002016060020140600206D
:102560003C020020CDCCCC3D38060020F6289C3E15
:1025700000000000C8040020CB040020C904002093
:10258000E9050020EE050020100400205370656569
:10259000645F446970616E5F4374726C0000000098
:1025A000D30B0008180400205461736B5F59756EDB
:1025B0007461695F4374726C000000001C040020A9
:1025C0005461736B5F576561706F6E5F4374726CBB
:1025D00000000000200400205461736B43616E53BF
:1025E000656E64001404002053656E64436F737558
:1025F0006D6500002404002043616C6353686F6FB5
:102600007400000070B54FF4A06002F05BFC00F0B5
:102610006DF800F0F7F800F04DF94FF4E13001F0FB
:1026200083F84FF4E13001F089FBFEF753F90646D9
:10263000322000F029F801F0F9FE322000F024F8F1
:10264000FFF734F90546322000F01EF805F0ACFC27
:10265000322000F019F80220FFF7ADFC4FF47A7138
:10266000042000F02CF8322000F00EF84FF48041E6
:10267000044804F0A3FC16B10DB1012400E00024CD
:10268000E0B270BD0014024010B5002107E04AF22C
:10269000104200BF1300A2F10102FBD1491C81428C
:1026A000F5D310BD10B5002106E0282200BF1300AD
:1026B000A2F10102FBD1491C8142F6D310BD70B5D5
:1026C00005460C4645F2555005F0E6F8284605F05B
:1026D000E6F8204605F0E6F805F0E7F805F0EAF838
:1026E00070BD10B505F0E1F810BD000000B585B073
:1026F0000121880303F0DDFC0121082003F081FCA7
:102700004FF48060039000208DF810008DF81200C7
:1027100001208DF8130000208DF8110003A9354821
:1027200004F0CEFB0A21032005F07EF84FF4806010
:10273000019000208DF808000C208DF80900012080
:102740008DF80A0001A804F0B5FA28208DF80000E1
:1027500002208DF8010001208DF802008DF80300A1
:10276000684602F0B4FB05B000BD10B5044614B1D4
:1027700001202149087020480078D0B14FF48061D1
:102780001C4804F0FFFBA0B90A20FFF77DFF0020E2
:10279000194908704FF48061164804F0F3FBA8B99A
:1027A0001648007808B9012000E00020134908709D
:1027B00010BD4FF480610F4804F0E4FB012805D1FF
:1027C0000A20FFF761FF01200B4908700B480078D1
:1027D000EEE710B54FF4806004F0D2FA40B14FF448
:1027E000806004F0DEFA0020FFF7BFFF04490860B4
:1027F00010BD0000000C024034040020350400200D
:10280000300400201FB50121202003F0FAFB012134
:10281000102003F0F6FB4FF48040029001208DF869
:102820000C0000208DF80E0001208DF80F00032011
:102830008DF80D0002A91C4804F042FB80211B48C2
:1028400004F0BAFB8020029001208DF80C000020DB
:102850008DF80E0001208DF80F0003208DF80D007B
:1028600002A9124804F02CFB4FF480410E4804F0FA
:10287000A3FB0121402003F0C4FB4FF40050009063
:1028800001208DF8040000208DF8060003208DF84B
:1028900005006946064804F013FB4FF40051044854
:1028A00004F08AFB1FBD000000140240001002402B
:1028B0000018024000B597B00121FE4803F0A1FBCB
:1028C0000121102003F0F5FB07221146FA4804F01D
:1028D00082FB8020119002208DF8480000208DF8A6
:1028E0004A0003208DF8490000208DF84B0011A903
:1028F000F14804F0E5FAF14804F07AFDF04813904D
:102900000020ADF85000ADF852004FF48060ADF8F3
:1029100054000420ADF856000020ADF8580013A96B
:10292000E64804F0B3FD0121E44804F037FE01223B
:102930004021E24804F0DFFE4FF4A06002F0C2FA4A
:102940003A208DF8400000208DF841008DF84200BB
:1029500001208DF8430010A802F0B9FAD94804F01C
:1029600073FB4FF000600190D448001D0290D648E0
:1029700003900020049012200590002006904FF450
:10298000806007900020089009904FF480700A90B2
:102990004FF440300B9000200C900D900E900F9053
:1029A00001A9C84804F0F2FB01221021C54804F037
:1029B000B4FC0121C34804F023FC17B000BDC34898
:1029C000B0F90A00404200EB800000EE100AB8EEB9
:1029D000C00ABF4880ED010ABC48B0F90C00404273
:1029E00000EB0010400000EE100AB8EEC00AB84834
:1029F00080ED030AB7484078B649C97808440128F1
:102A00002FD1B448407898B1B34800880A3000B25A
:102A1000B14908800846B0F90000B049B1F900108A
:102A200088422EDDAD48B0F90000AB49088028E0AF
:102A3000A848C07828B3A84800880A3800B2A64938
:102A400008800846B0F90000A449B1F900104942D5
:102A5000884216DAA1480088404200B29E490880A8
:102A60000FE09D48B0F90000002802DD00209A49DF
:102A700008809948B0F90000002802DA0020964941
:102A800008809548B0F9000000EE100AB8EEC00AC0
:102A90008F4880ED070A8F4880788E49097908446D
:102AA000012863D18B48007970B38D4800880A30C3
:102AB00000B28B4908808948B0F9000000EE100A86
:102AC000B8EEC00ADFED870A60EE200A0846B0F9CA
:102AD000000000EE100AB8EEC00AF4EEC00AF1EEF3
:102AE00010FA53D27D48B0F9000000EE100AB8EE9B
:102AF000C00ADFED7C0A20EE200ABDEEC00A10EE0F
:102B0000100A00B2088041E07248807868B37448C7
:102B100000880A3800B2724908807048B0F9000095
:102B200000EE100AB8EEC00ADFED6F0A60EE200A70
:102B30000846B0F9000000EE100AB8EEC00AF4EE44
:102B4000C00AF1EE10FA21DD6448B0F9000000EE91
:102B5000100AB8EEC00ADFED640A20EE200ABDEECE
:102B6000C00A10EE100A00B208800FE05C48B0F90D
:102B70000000002802DD0020594908805848B0F9BB
:102B80000000002802DA0020554908805448B0F9B6
:102B9000000000EE100AB8EEC00A4D4880ED080AA9
:102BA00090ED010ADFED510AB4EEE00AF1EE10FA01
:102BB00007DD4F48008800F5AF7000B24C4908802F
:102BC00024E0434890ED010ADFED4A0AB4EEE00A42
:102BD000F1EE10FA07D246480088A0F5AF7000B2B7
:102BE0004349088012E03A48D0ED010A4048B0F964
:102BF000000000EE100AB8EEC00A30EE800ABDEE0A
:102C0000C00A10EE100A00B23949088031484079F4
:102C1000304989790844012827D12E48407980B16C
:102C20002C48C07830B1324800880A3800B23049A8
:102C3000088063E02E4800880A3000B22C490880E2
:102C40005CE02448807998B32248C07830B12848A5
:102C500000880A3000B2264908804FE024480088E6
:102C60000A3800B22249088048E02148B0F9000043
:102C700000280CDD1E480088143800B21C4908806A
:102C80000846B0F90000002801DA00200880184842
:102C9000B0F90000002831DA15480088143000B27D
:102CA000134908800846B0F90000002826DD23E01B
:102CB00024E0000002004000000402400010014037
:102CC000A086010040640240EC0D0020060E0020AA
:102CD000A00D00202E0E00208C0400203A040020BD
:102CE0008E0400203333333F333333BF0000AF4310
:102CF000900400200000AFC300200880FE48B0F917
:102D0000000000EE100AB8EEC00ADFEDFC0A60EE2B
:102D1000200AFB48B0F9000000EE100AB8EEC00A25
:102D2000F4EEC00AF1EE10FA11D2F348B0F9000047
:102D300000EE100AB8EEC00ADFEDF00A20EE200A1D
:102D4000BDEEC00A10EE100A00B2ED490880EA4854
:102D5000B0F9000000EE100AB8EEC00ADFEDE90A93
:102D600060EE200AE648B0F9000000EE100AB8EE66
:102D7000C00AF4EEC00AF1EE10FA11DDDE48B0F937
:102D8000000000EE100AB8EEC00ADFEDDE0A20EE09
:102D9000200ABDEEC00A10EE100A00B2D849088021
:102DA000D748B0F9000000EE100AB8EEC00AD648C5
:102DB00080ED090A704710B5D448007AD4490860FC
:102DC000D248407AD349086008460068032808D1F1
:102DD000D148007828B90120CF490870412001F07E
:102DE000D8FACC480068022809D1CB4800780128DD
:102DF00005D10020C8490870422001F0CAFAC34832
:102E00004088A0F5806000EE900AF8EEE00AB0EE8F
:102E1000600AF3EE090A07F02EFBBB4880ED0C0AAE
:102E2000BA480088A0F5806000EE900AF8EEE00A4B
:102E3000B0EE600AF3EE090A07F01DFBB24880ED20
:102E40000D0AB2488088C0F5806000EE900AF8EE66
:102E5000E00AB0EE600AF3EE090A07F00CFBAA489C
:102E600080ED000AA948C088A0F5806000EE900AB5
:102E7000F8EEE00AB0EE600AF3EE090A07F0FBFA9A
:102E8000A14880ED020A10BD10B5FFF794FFFFF7CF
:102E900096FD9D4890ED090AD0ED000A9FED9F1A1E
:102EA00000EE810AD0ED010A30EE200A9C4880ED48
:102EB000000A954890ED030AD0ED020A9FED971A9B
:102EC00010EEC10A974880ED000A8F4890ED070A7E
:102ED000D0ED0C0AB7EE041A00EE810A924880ED9C
:102EE000000AD0ED000A8448B0F9000000EE100A94
:102EF000B8EEC00AF4EEC00AF1EE10FA07DD7E4823
:102F0000B0F9000000EE100AB8EEC00A02E08648F0
:102F100090ED000A844880ED000AD0ED000A764862
:102F2000B0F90000404200EE100AB8EEC00AF4EE1C
:102F3000C00AF1EE10FA08D26F48B0F90000404222
:102F400000EE100AB8EEC00A02E0774890ED000AE1
:102F5000754880ED000A6C4890ED080AD0ED0D0A26
:102F6000B7EE041A00EE810A704880ED000AD0ED39
:102F7000000A6148B0F9000000EE100AB8EEC00A7D
:102F8000F4EEC00AF1EE10FA07DD5B48B0F900007C
:102F900000EE100AB8EEC00A02E0644890ED000AA4
:102FA000624880ED000AD0ED000A5348B0F90000F5
:102FB000404200EE100AB8EEC00AF4EEC00AF1EE8C
:102FC00010FA08D24C48B0F90000404200EE100A56
:102FD000B8EEC00A02E0554890ED000A534880ED73
:102FE000000A504890ED000A9FED511AC0EE010A08
:102FF000504890ED000A30EE800A80ED000A4E48FD
:10300000007868B14D48D0ED000AB1EE0C1A80EEA0
:10301000810A4848D0ED000A30EEC00A80ED000A6F
:10302000444890ED000ADFED460AB4EEE00AF1EE06
:1030300010FA02DD9FED420A02E03E4890ED000AE0
:103040003C4880ED000A90ED000ADFED3E0AB4EE48
:10305000E00AF1EE10FA02D29FED3A0A02E035489A
:1030600090ED000A334880ED000A2D48D0ED000AAB
:103070009FED351A80EE810A3448D0ED000A30EE1B
:10308000200A80ED000A2C48007880B13048D0ED4D
:10309000000AB1EE0C1A80EE810A2C48D0ED000A2D
:1030A00030EE200A80ED000A0020234908702948EC
:1030B00090ED000A2848D0ED000A70EE600A27481B
:1030C000B0F9000000EE100AB8EEC00A244890EDF6
:1030D000001A30EE410A30EEC00A224880ED000AA4
:1030E00090ED000A0621204806F060FD1D4880EDA5
:1030F000000A90ED000A39E03A040020CDCC4C3FA4
:1031000090040020CDCC4CBFA00D0020060E002066
:10311000840400208804002079040020B81EC53FE4
:103120003C04002040040020440400204804002007
:103130000000704354040020CB040020E004002071
:1031400000000C4200000CC20000F04250040020BD
:10315000DC040020EC06002004020020B80100205E
:1031600000E9000860040020880D0020DFEDFE0A61
:1031700030EE200AFD48D0ED000AB4EEE00AF1EE90
:1031800010FA07D2FA4890ED000ADFEDF70A30EEA8
:10319000200A02E0F54890ED000AF44880ED000AAC
:1031A000F34890ED000ADFEDF00A30EE600AEF48D8
:1031B000D0ED000AB4EEE00AF1EE10FA07DDEC48BB
:1031C00090ED000ADFEDE80A30EE600A02E0E74821
:1031D00090ED000AE54880ED000A10BD10B5E54805
:1031E0004079C0F30110E4490860084600680328EC
:1031F0000BD1E2480068012807D1E148006808B90E
:10320000012000E00020DE490860DB480068DB495F
:103210000860DB48006801287ED11122D949DA48CC
:103220000AF075FC1422D949D9480AF070FCD94833
:103230000068401CD7490860CE480078CD494978DD
:1032400040EA0120C0F30A00D0490880C94840780C
:10325000C010C849897840EA4110C0F30A00CB4940
:103260004880C44880788011C249C97840EA81000A
:10327000C049097940EA8120C0F30A00C349888027
:10328000BC4800794010BB49497940EAC110C0F3FD
:103290000A00BE49C880B74840790011800808720A
:1032A000B4484079C0F301104872B2488079B149FE
:1032B000C97940EA012000B2B4494881AD48007A9A
:1032C000AC49497A40EA012001B2B0488181A9485D
:1032D000807AA849C97A40EA012001B2AB48C1818D
:1032E000A448017BA9480174A248417BA7484174C6
:1032F000A048807B9F49C97B40EA0120A3494882BE
:103300000846807C00F001009E4948709F48807C00
:10331000C0F34000C87000E0BDE19C48807CC0F371
:10332000800088709948807CC0F3C000087197487D
:10333000807CC0F3001008729448807CC0F3401079
:10334000C8719248807CC0F3801048718F48807C9F
:10335000C0F3C01088718D48408AC0F300204872C5
:103360008A48408AC0F3402088728848408AC0F367
:103370008020C8728548408AC0F3C0200873834803
:10338000408AC0F3003048738048408AC0F3403020
:1033900088737E48408AC0F38030C8737B48408A77
:1033A000C00B08747948007A01280FD07748007A5A
:1033B00002280BD07548007A032807D00120FFF7B8
:1033C00063F9012000F07FF900F082F96F48407A3C
:1033D00001280FD06D48407A02280BD06B48407A04
:1033E000032807D00120FFF74FF9012000F06BF907
:1033F00000F06EF96348407B012816D16248407B9B
:1034000098B96548007848B96448007830B9012017
:103410006149087000206249087006E05E48007843
:10342000012802D100205C4908705648007CF8B1A0
:103430005548007CE0B95A48007818B9012058492D
:10344000087008E0002056490870564890ED000AC0
:10345000554880ED000A5048007848B94F48007838
:1034600018B901204D49087002E000204B4908704E
:103470004448C079012809D14C4890ED000ADFED9D
:103480004C0A30EE200A80ED000A04E09FED490A64
:10349000464880ED000A3B48007A012811D139489E
:1034A000007A70B94448B0F90000B0F5FA7F04D151
:1034B00040F276204049088003E04FF4FA703E491C
:1034C00008803048007B01280AD12F48007B38B99A
:1034D0003A48007808B9012000E000203749087018
:1034E0002848C07A364908702648C07A30B1264844
:1034F000C07A18B9042000F05FFF09E02148C07AC3
:1035000030B92148C07A012802D1002000F054FFD0
:103510001C48807A2A4908701A48807A30B11A48C3
:10352000807A18B9012000F047FF09E01548807A39
:1035300030B91548807A012802D1002000F03CFF04
:103540001048807B1F4908700E48807B58B10E4898
:10355000807B40B9022000F02FFF9FED160A1A4829
:1035600080ED000A32E03EE000008242500400207C
:1035700060040020EC0D0020680400206C04002092
:10358000640400202E0E00203F0E0020060E0020B6
:103590001A0E002070040020EA050020EF0500202C
:1035A000E90500200000002004060020940400200B
:1035B0006F12833A000000003A0400203804002013
:1035C000C8040020C904002054040020484890ED9D
:1035D000000A484880ED000A474890ED000A474835
:1035E00080ED000A09E04648807B30B94548807B81
:1035F000012802D1002000F0DFFE4148C07B424993
:1036000008703F48C07BB8B13E48C07BA0B90320DA
:1036100000F0D2FE1FED190A374880ED000A344849
:1036200090ED000A334880ED000A334890ED000A1F
:10363000324880ED000A09E03148C07B30B931489A
:10364000C07B012802D1002000F0B6FE2C48407A51
:10365000012809D12D4890ED000ADFED2D0A30EE4A
:10366000200A80ED000A04E01FED2E0A274880EDB5
:10367000000A264890ED000AF0EE080AB4EEE00ACF
:10368000F1EE10FA07DB0120FEF7FEFF012000F04B
:103690001AF800F01DF81F48007808B1FFF7F4FB96
:1036A00010BD10B51C491D4803F054FE50B14FF039
:1036B00081511A4803F01DFE1749184803F074FEA3
:1036C000FFF78CFD10BD00F0010181F313887047F6
:1036D000BFF34F8F1248006800F4E06011490843BF
:1036E000001D0F490860BFF34F8F00BFFEE70000C9
:1036F0005004002058040020540400205C040020E2
:103700002E0E00203F0E0020C90400209804002047
:10371000CDCCCC3D0C040020008020104064024041
:103720000CED00E00000FA0510B596B0044601214A
:10373000FE4802F066FC0121480402F0A9FC0722C1
:103740000621FB4803F047FC07220521F84803F057
:1037500042FC6020109002208DF8440000208DF87B
:10376000460003208DF8450000208DF8470010A981
:10377000EF4803F0A5FBEF4803F03AFE1294002057
:10378000ADF84C00ADF84E00ADF850000C20ADF88F
:1037900052000020ADF8540012A9E64803F076FE6E
:1037A0000121E44803F0FAFE01224021E14803F040
:1037B000A2FF4FF4A06001F085FB10208DF83C00C3
:1037C00000208DF83D008DF83E0001208DF83F006F
:1037D0000FA801F07CFBD84803F036FC4FF00060E6
:1037E0000090D448001D0190D4480290002003901E
:1037F00032200490002005904FF480600690002055
:10380000079008904FF4807009904FF440300A9070
:1038100000200B900C900D900E906946C64803F066
:10382000B5FC01221021C44803F077FD0121C248F4
:1038300003F0E6FC16B010BD0146002000BF04E016
:103840000022BE4B1A54421C10B28842F8DB70476B
:1038500030B5034613B94FF6FF7030BD09E013F8D9
:10386000014B82EA0400C0B2B54D35F8100080EA81
:1038700022220800A1F10101F1D11046EDE770B557
:1038800005460C4600260DB1022C01D8002070BD63
:10389000A11EAC4802882846FFF7DAFF0646F1B2BF
:1038A000A01E285C814206D1601E285CB0EB162F5A
:1038B00001D10120EBE70020E9E700B511219F4885
:1038C000FFF7DDFF012831D19C48407901282DD137
:1038D0009A48407B9949897B40EA01209A49C880EF
:1038E0009648C07A9549097B40EA0120964988802C
:1038F0009248807AC8709148407A88708F48C07921
:103900008E49097A40EA01208F4908800846C0782C
:103910008E4908700846007808B9012001E08B48FC
:1039200000788A4908701120FFF786FF0A21834832
:10393000FFF7A5FF012817D180484079022813D14D
:103940007E48C0798249097860F30301804801709C
:103950007A48C07901097E48007861F307107C49F4
:1039600008700A20FFF768FF0F217448FFF787FFF0
:10397000012825D171484079032821D16F48007A68
:10398000744948706D48407A734908706B48807A72
:1039900048706A48C07A88706848007BC8700846DA
:1039A00000686C49C1F802006B4890ED000A6B4852
:1039B00080ED000A0F20FFF73FFF012068490870E3
:1039C0001D215E48FFF75BFF01284BD15B48407922
:1039D000042847D15948C07B5F4908705748007C8C
:1039E00048705648407C88705448807CC8700846AF
:1039F00000685C498860584890ED000A5A4880ED9C
:103A0000000A4E48C07C544908704C48007D4870FC
:103A10004A48407D88704948807DC87008460068E3
:103A20005049C8604C4890ED000A504880ED000AAB
:103A30004248C07D4149097E40EA01204949088247
:103A40003E48407E3D49897E40EA01204549488202
:103A50000846008A464908800120464908701D2012
:103A6000FFF7EAFE0B213548FFF709FF012811D1C6
:103A700032484079052803D030484079062809D1DA
:103A80002E48C0793C4908702C48007A48700B20B9
:103A9000FFF7D2FE0C212948FFF7F1FE01280AD1D9
:103AA00026484079072806D12448C0793349087050
:103AB0000C20FFF7C1FE19212048FFF7E0FE012886
:103AC00077D11E484079082873D11C48C079224913
:103AD00008701A48007A48701848407A8870174869
:103AE000807AC87008460068254908601348C07A83
:103AF000194908701148007B48701048407B887055
:103B00000E48807BC870084600681D4948600B4815
:103B1000C07B114908700948007C48700748407C08
:103B200088700648807CC87008462BE0080020009A
:103B3000000C02400044004088600240500E00200B
:103B400006EA0008C60400209C040020B0040020FF
:103B5000AA040020A4040020C0040020B404002013
:103B6000C4040020980E0020B8040020BC040020EB
:103B7000B2040020C5040020AB040020AD040020E6
:103B8000AC0E00200068634988606348C07C6349CC
:103B900008706148007D48705F48407D88705E48CD
:103BA000807DC870084600685A49C8601920FFF730
:103BB00043FE00BD10B55A495A4803F0CBFB48B14B
:103BC0005949584803F095FB5549564803F0ECFB1A
:103BD000FFF773FE10BD10B5044600BF40215348E7
:103BE00003F0B7FD0028F9D02146504803F001FD4D
:103BF00010BD70B504460D4605E014F8010BFFF743
:103C0000EAFF681EC5B2002DF7DC70BD70B5054631
:103C10000C4600260DB1022C00D870BDA11E4448F0
:103C200002882846FFF714FE0646A01E2E54310ACD
:103C3000601E295400BFF0E730B5034605E013F8D5
:103C4000010B80EA02043B48025D0800A1F101017A
:103C5000F5D1104630BD70B505460C4600260DB1B5
:103C6000022C00D870BD611EFF222846FFF7E4FF3A
:103C70000646601E2E5400BFF4E710B52DED048BF0
:103C8000B0EE408AF0EE608AB0EE419A0446A5207C
:103C9000294908700D20A1F801000846C078401C91
:103CA000C87005212448FFF7D6FF4FF480702249E1
:103CB000A1F8050018EE100AC1F8070018EE900AE6
:103CC000C1F80B0019EE100AC1F80F000846C474C1
:103CD0001621FFF79BFF16211748FFF78AFFBDEC5F
:103CE000048B10BD70B505460C4600260DB1022CA4
:103CF00001D8002070BD611EFF222846FFF79CFFFF
:103D00000646601E285CB04201D10120F2E7002087
:103D1000F0E70000AC0E0020500E0020C004002090
:103D20000088002088600240000800200044004015
:103D3000C604002005E90008820E002010B588B0F6
:103D400004460121082002F05CF90121880402F0F8
:103D50009FF907220821F94803F03DF907220921BC
:103D6000F64803F038F94FF44070069002208DF8C1
:103D70001C0000208DF81E0001208DF81F0002207D
:103D80008DF81D0006A9ED4803F09AF80294002072
:103D9000ADF814000C20ADF812000020ADF81000B2
:103DA000ADF80E00ADF80C0002A9E54803F06EFB7B
:103DB0000121E34803F0F2FB4021E14803F0D6FC87
:103DC000012240F22551DE4803F09EFC4FF4A06032
:103DD00001F078F827208DF8040001208DF8070005
:103DE00003208DF805008DF8060001A801F06FF89A
:103DF00008B010BD2DE9F0412DED048B0027002601
:103E0000002440F22551CE4803F0B9FC00286ED0C2
:103E1000CC48007801286BD1C94803F0EEFBC6B24C
:103E2000C94800780A280DD2DFE800F0050D141FFC
:103E30002A35404B5663FF2E04D1C3480078401CFE
:103E4000C14908704CE126B9BF480078401CBE4902
:103E5000087045E1BA4803F0D0FBBC490860BA4895
:103E60000078401CB84908703AE1B54803F0C5FB3A
:103E7000B6494860B4480078401CB34908702FE147
:103E8000AF4803F0BAFBB1498860AF480078401CE6
:103E9000AD49087024E1AA4803F0AFFBAB49C86004
:103EA000A9480078401CA849087019E1A44803F00B
:103EB000A4FBA6490861A4480078401CA2490870E8
:103EC0000EE19F4803F099FBA04948619E480078A5
:103ED000401C9D49087003E1994803F08EFB9B4903
:103EE000886199480078401C97490870F8E04EE2D4
:103EF000F7E0934803F081FB9449C86100209249A0
:103F00000870924800889149097940EA01208F4958
:103F100009898E4A127B41EA022108448B49098AA9
:103F20008A4A127D41EA02210844FF3085B287485F
:103F3000008B8649097F40EA012087B2BD426FD1DC
:103F40008248007900F0800038B3804800887F49BB
:103F5000097940EA012084B2601E84B2E04384B251
:103F6000E0B27A490860200A486000240968774A6C
:103F7000526841EA022148420AF0C8F941EC190BA3
:103F80009FED730B53EC102B0AF068F841EC180B03
:103F900009F07EFF7049086015E06C4909686B4ABA
:103FA000526841EA02200AF0B1F941EC190B9FED89
:103FB000680B53EC102B0AF051F841EC180B09F088
:103FC00067FF654908606148007B00F0800040B3EE
:103FD0005E4800895D49097B40EA012084B2601E89
:103FE00084B2E04384B2E0B258498860200AC860D5
:103FF00000248968554AD26841EA022148420AF001
:1040000085F941EC190B9FED520B53EC102B0AF084
:1040100025F841EC180B09F03BFF5049086017E008
:104020005DE0FFE749498968484AD26841EA0220D1
:104030000AF06CF941EC190B9FED450B53EC102B7A
:104040000AF00CF841EC180B09F022FF4349086014
:104050003E48007D00F0800038B33C48008A3B4970
:10406000097D40EA012084B2601E84B2E04384B23C
:10407000E0B236490861200A486100240969334AE0
:10408000526941EA022148420AF040F941EC190B19
:104090009FED2F0B53EC102B09F0E0FF41EC180BB8
:1040A00009F0F6FE2E49086015E028490969274AFB
:1040B000526941EA02200AF029F941EC190B9FEDFF
:1040C000240B53EC102B09F0C9FF41EC180B09F03D
:1040D000DFFE2349086001202249087000E000BF8C
:1040E00050E1214800780128FAD1154803F085FAFB
:1040F000C6B21548007808280CD2DFE800F0040C9E
:104100001337424D5863FF2E04D10F480078401CEE
:104110000D49087035E126B90B480078401C0A4962
:1041200008702EE1064803F068FA0849086006485E
:104130000078401C0449087023E10000000C024094
:1041400000480040C8040020F0040020BC0E0020FD
:104150000000000000005940DC040020E0040020C2
:10416000E4040020CB040020C9040020A44803F08C
:1041700044FAA4494860A4480078401CA249087049
:10418000FFE09F4803F039FA9E4988609E48007816
:10419000401C9D490870F4E0994803F02EFA9949B3
:1041A000C86099480078401C97490870E9E0944835
:1041B00003F023FA9349086193480078401C924920
:1041C0000870DEE08E4803F018FA8E49486100203E
:1041D0008D4908708B4800888A49097940EA012096
:1041E00088490989874A127B41EA02210844FF3045
:1041F00085B28448008A8349097D40EA012087B25C
:10420000BD426FD17F48007900F0800038B37D480F
:1042100000887C49097940EA012084B2601E84B29A
:10422000E04384B2E0B277490860200A4860002485
:104230000968744A526841EA022148420AF066F865
:1042400041EC190B1FED3E0B53EC102B09F006FF50
:1042500041EC180B09F01CFE6C49086015E0694937
:104260000968684A526841EA02200AF04FF841ECB6
:10427000190B1FED490B53EC102B09F0EFFE41EC2D
:10428000180B09F005FE614908605E48007B00F0EC
:10429000800040B35B4800895A49097B40EA01200D
:1042A00084B2601E84B2E04384B2E0B255498860B3
:1042B000200AC86000248968524AD26841EA022173
:1042C00048420AF023F841EC190B1FED5F0B53EC49
:1042D000102B09F0C3FE41EC180B09F0D9FD4C4935
:1042E000086017E04CE0FFE746498968454AD26814
:1042F00041EA02200AF00AF841EC190B1FED6C0BA1
:1043000053EC102B09F0AAFE41EC180B09F0C0FD8C
:104310003F4908603E4890ED000A3E48D0ED000A53
:10432000B4EE600AF1EE10FA0ED1384890ED000AB2
:104330003948D0ED000AB4EE600AF1EE10FA03D16C
:10434000BDEC048BBDE8F081314890ED000A3148A6
:1043500080ED000A2D4890ED000A2F4880ED000AFC
:104360002B4890ED000A2D4880ED000A274890ED7B
:10437000000A2B4880ED000A01202A49087000E05D
:1043800000BF00BF40F225511D4803F02FFA00BFC7
:10439000D6E710B5044600BF4021194803F0D9F90B
:1043A0000028F9D02146164803F023F91E4800687A
:1043B000401C1D49086010BD10B50446062C1CD2D7
:1043C000DFE804F003070F130B173020FFF7E1FFBE
:1043D00013E04120FFF7DDFF0FE04220FFF7D9FF98
:1043E0000BE03120FFF7D5FF07E03220FFF7D1FFC8
:1043F00003E03320FFF7CDFF00BF00BF10BD00007A
:1044000000480040BC0E0020F0040020E80400201A
:10441000EC040020D0040020CC040020D8040020AC
:10442000D4040020CA040020F404002000B58BB09E
:104430000121080201F0E5FD0121022001F039FE11
:104440006020099002208DF8280003208DF82900B3
:1044500009A9F74802F034FD03220521F44802F0CF
:10446000BAFD03220621F24802F0B5FDA720ADF8FF
:1044700018000020ADF81A0044F6206007900020D4
:10448000ADF8200006A9EB4800F039FE7020ADF829
:1044900004000120ADF806000020ADF808000390EC
:1044A0000220ADF810000020ADF81200ADF81400A5
:1044B0004FF48070ADF8160001A9DE4800F0B4FE9C
:1044C00001A9DC4800F0E9FE0821DA4801F039F8DA
:1044D0000821D84801F03EF80121D64800F07AFEC4
:1044E0000121D44801F085FA0121D24800F090FE64
:1044F000D148B0F9000000EE100AB8EEC00ACF486B
:1045000080ED000ACC48B0F90000404200EE100AED
:10451000B8EEC00ACA4880ED000A0020C9490870F8
:10452000C94890ED000AC94880ED000A0BB000BDF3
:1045300010B52DED048BB0EE408AC548B0F90000EF
:1045400000EE900AF8EEE00AB0EE600A05F08EFD8B
:10455000DFEDC00AB4EEE00AF1EE10FA05D2002059
:10456000BD490880BDEC048B10BDB948B0F902000C
:1045700000EE900AF8EEE00AB0EE600A05F076FD73
:10458000DFEDB40AB4EEE00AF1EE10FA03D2002037
:10459000B1490880E6E7AB48007830B9AF480088F9
:1045A00018B90020AC490880DCE7AD4890ED000A5E
:1045B000AC4880ED010AA3480078E8BBAA48007C1B
:1045C000012807D1A948007C20B99FEDA90AA94874
:1045D00080ED000A9FEDA80AA24880ED000AA548D8
:1045E00090ED000AF7EE000A30EE200A80ED000A96
:1045F00018EE100A0AF008F941EC190BB0EE490A5E
:10460000F0EE690A974806F007FA964890ED0D0A11
:10461000BDEEC00A10EE100A00B28F49088095481E
:1046200090ED000ADFED950AB4EEE00AF1EE10FA23
:104630004EDD002008804BE0FFE78248007801282B
:104640002ED18948007C012806D18D4890ED000AC2
:10465000844880ED000A0BE08348407C012807D1A4
:10466000874890ED000AB1EE400A7E4880ED000ACE
:10467000B0EE480A7B4806F0FAF87A4890ED0D0A49
:10468000BDEEC00A10EE100A00B2734908807648E9
:10469000017C407C0844D8B900206F49088017E0AD
:1046A00068480078022813D1754890ED000A6D48DB
:1046B00080ED000AB0EE480A06F0D9F8694890ED9E
:1046C0000D0ABDEEC00A10EE100A00B26249088061
:1046D00000BF47E710B5624890ED000A05F0C6FC40
:1046E000F2EE040AB4EEE00AF1EE10FA0ED26548DA
:1046F0000088401C00B263490880634890ED000ABE
:10470000F7EE000A30EE600A80ED000A4E4890EDA8
:10471000000A5E48D0ED000A30EE600AF0EE080AAA
:10472000B4EEE00AF1EE10FA04D2002058490880F5
:104730005449088053480088642804D10020514916
:1047400008805349088010BD03205149088000208B
:104750004C4908803D4890ED000A4E48D0ED000AD3
:1047600030EE600A484880ED000A384890ED000AB3
:104770004848D0ED000A30EE600A444880ED000A57
:10478000324890ED000A4348D0ED000A30EE600A4E
:104790002E4880ED000A704700B5314890ED000AC0
:1047A000F2EE040AB4EEE00AF1EE10FA1BD235483C
:1047B0000088401C00B233490880B1F9001032294A
:1047C00011DD3049B1F9000000EBD0714910A0EBC8
:1047D000410141B92C4890ED000AF7EE000A30EE95
:1047E000200A80ED000A2748B0F90000C82804D14B
:1047F000002024490880FFF7A7FF244890ED000A15
:104800001148D0ED000A30EE600AF0EE080AB4EE6E
:10481000E00AF1EE10FA0AD200201D490880194979
:1048200008801D480078401C40B21B49087000BD3C
:10483000002002400004014002060020F80400208D
:1048400034050020E90500200000002004060020B7
:10485000F00100200000C842180600201A060020BF
:104860000400002070050020060E00201A0E002013
:10487000000000003C06002000803B45000048424C
:1048800008060020000600200C060020100600206C
:10489000FE050020F4050020F00500200220FE495E
:1048A00008800020FD490880FD4890ED000AFD4881
:1048B000D0ED000A30EE200AFB4880ED000AF848EF
:1048C00090ED000AF748D0ED000A30EE200AF748D4
:1048D00080ED000AF24890ED000AF248D0ED000A9F
:1048E00030EE200AEE4880ED000A704710B52DED3D
:1048F000028BB0EE408AEE48007828B10020ED49E6
:104900000880BDEC028B10BDEB480078401EEB49DF
:1049100031F910001E3800EE100AB8EEC00AE8485F
:10492000D0ED000AB4EEE00AF1EE10FA03D2002056
:10493000E0490880E5E7E348B0F9000000EE900A9E
:10494000F8EEE00AB0EE600A05F090FB5FED3F0A7A
:10495000B4EEE00AF1EE10FA03D20020D549088047
:10496000CFE7D848B0F9020000EE900AF8EEE00A6E
:10497000B0EE600A05F07AFB5FED4A0AB4EEE00A99
:10498000F1EE10FA03D20020CA490880B9E7CE48F8
:104990000078CE4909780844CD490870CD48007C9C
:1049A000C9490870CB48407CC8490870C64800789F
:1049B00001280ED1C648007858B9B748B0F90000B0
:1049C000002803DDB4480088032802D10120B24941
:1049D0000880BE48007801280DD1BD48007850B944
:1049E000AD48B0F90000002803DDAB48008802287C
:1049F00001D1FFF7A9FEA8480088B8B9AB4890EDEF
:104A0000000AA94880ED000AB34890ED000A05F0BD
:104A10002DFBDFEDB20AB4EEE00AF1EE10FA02D29D
:104A20004FF0FF3000E000209B4908809A48008842
:104A3000012801D1FFF732FF97480088022801D1F1
:104A4000FFF7AAFE94480088032801D1FFF742FE31
:104A5000A34890ED000AA34880ED010A8E48B0F902
:104A60000000002803DC9E4890ED000A02E08E481A
:104A700090ED000A9B4880ED000AB0EE480A05F070
:104A8000F6FE984890ED0D0ABDEEC00A10EE100A31
:104A900000B28849088000BF33E710B52DED028BC6
:104AA000B0EE408A90480068012802D18F49087012
:104AB00002E000208D4908708D480078012803D05D
:104AC0008A480078012835D18A480088401C00B205
:104AD000884908800846B0F9000040F6C4118842B1
:104AE00001DD084602E08348B0F9000081490880F2
:104AF0000846B0F90010804800F0EFFC7F480068DD
:104B0000401C7E49086008460068C82804D14FF45C
:104B100000517B4802F050FA78480068B0F5C87F31
:104B200022D14FF40051764802F048FA0020734930
:104B3000086019E06F480088401E00B26D49088087
:104B40000846B0F9000040F2E241884201DA084626
:104B500002E06848B0F90000664908800846B0F9EC
:104B60000010654800F0B9FC5F48006802280AD1CF
:104B700064480068022806D10120634908700220B9
:104B80004B49087008E04A480078022804D1002008
:104B90005D490870464908705C484549097830F914
:104BA000110000EE100AB8EEC00A594880ED000A64
:104BB00058483F49097830F8110057490880414862
:104BC000B0F9000000EE900AF8EEE00AB0EE600ADC
:104BD00005F04CFAF0EE408A3A48B0F9020000EED7
:104BE000900AF8EEE00AB0EE600A05F03FFA38EEFF
:104BF000800ABDEEC00A10EE100A00B247490880D4
:104C00004148007801281AD10846B0F90000B0F5F3
:104C1000FA7F14DD42480078E0B93F48B0F900005F
:104C20004000A0F5AF70B1F90010884212DA0120FF
:104C30003B4908704103324802F0BEF90AE02C48B3
:104C4000007820B94FF400512D4802F0B7F9002048
:104C500033490870324890F9000001281ADD2E48C7
:104C6000B0F900004000FA382C49B1F90010884230
:104C700010DD134890ED000AF3EE040A30EE200A2E
:104C800080ED000AFF202649087026480078401C65
:104C900024490870064847E0FE0500200006002071
:104CA00004060020F40500200C0600201006002059
:104CB000E90500201A060020B00400202A06002082
:104CC00038060020F0010020EC050020EB05002054
:104CD000ED050020060E0020040000200000FA432D
:104CE00000000020AC05002084040020E80500201E
:104CF000EF05002044060020000401404C0600207F
:104D00000018024088040020EA0500201E0600204A
:104D10000806002024060020020600201C060020B1
:104D2000F0050020EE0500200078012835D1534819
:104D30000078012831D15248B0F900004000A0F5B8
:104D4000AF705049B1F90010884226DD4E4890ED11
:104D5000000A4E48D0ED000A30EE600ADFED4C0A42
:104D6000B4EEE00AF1EE10FA17DD4A48007C0128A3
:104D700013D149480078401C47490870474890EDD6
:104D8000000AF2EE0A0A30EE200A80ED000A3E48E0
:104D900090ED000A3D4880ED000A3948B0F9000066
:104DA00000EE100AB8EEC00A3D4880ED000A344813
:104DB000B0F90000404200EE100AB8EEC00A3948CF
:104DC00080ED000A3848B0F9000000EE100AB8EE95
:104DD000C00A334880ED010A3348B0F9020000EE02
:104DE000100AB8EEC00A2F4880ED010AB0EE480A5A
:104DF0002B4805F03CFDB0EE480A2A4805F037FD87
:104E00002A480078012803D1254890ED0D0A01E0D9
:104E10009FED270ABDEEC00A10EE100A00B2254928
:104E2000088022480078012803D11E4890ED0D0A21
:104E300001E09FED1F0ABDEEC00A10EE100A00B29D
:104E40001D4908801D48007801280BD11C480088A6
:104E500000EE100AB8EE400A104880ED000A00206B
:104E600016490870B0EE480AFFF740FDB0EE480A58
:104E7000FFF75EFBBDEC028B10BD0000F0050020CB
:104E8000020600201C0600202804002048060020FE
:104E9000CDCC4C3E060E0020EE050020380600204A
:104EA000F804002034050020F0010020EA0500206D
:104EB000000000001406002016060020C504002093
:104EC000B204002032490143324A1160704770B584
:104ED000002100230F22C4781CB32E4C246804F454
:104EE000E064C4F5E064C4F30721C1F10404E3B253
:104EF0000A4144789C40E1B28478144021430C0775
:104F0000210E254C05786155047804F01F05012415
:104F1000AC4005786D11AD0005F1E025C5F8004104
:104F200009E0047804F01F050124AC401B4D06780D
:104F3000761145F8264070BD194A0A400243154BC8
:104F40001B1F1A60704739B1124A121D12680243C2
:104F5000104B1B1D1A6006E00E4A121D1268824398
:104F60000C4B1B1D1A607047042808D14FF0E0213C
:104F7000096941F004014FF0E022116107E04FF0B0
:104F8000E021096921F004014FF0E022116170472E
:104F90000000FA050CED00E000E400E080E100E034
:104FA00080FFFF1F10B50446FE48844208D101214E
:104FB000084601F0D3F80021012001F0CFF89DE070
:104FC000B4F1804F08D10121084601F0B6F8002164
:104FD000012001F0B2F891E0F348844208D10121A8
:104FE000022001F0AAF80021022001F0A6F885E0D5
:104FF000EE48844208D10121042001F09EF80021EE
:10500000042001F09AF879E0E948844208D10121AE
:10501000082001F092F80021082001F08EF86DE0E0
:10502000E448844208D10121102001F086F80021D3
:10503000102001F082F861E0DF48844208D10121AC
:10504000202001F07AF80021202001F076F855E0C8
:10505000DA48844208D10121022001F07FF80021C2
:10506000022001F07BF849E0D548844209D10121B2
:10507000080401F073F800214FF4803001F06EF85D
:105080003CE0D048844209D10121480401F066F88F
:1050900000214FF4003001F061F82FE0CA4884424B
:1050A00009D10121880401F059F800214FF4802032
:1050B00001F054F822E0C548844208D10121402083
:1050C00001F03BF80021402001F037F816E0C0481D
:1050D000844208D10121802001F02FF80021802096
:1050E00001F02BF80AE0BB48844207D1012180156A
:1050F00001F023F80021A01501F01FF810BD0022D7
:105100000288A84B98420ED0AC4B98420BD0B0F11D
:10511000804F08D0A44B984205D0A44B984202D0AF
:10512000A34B984204D14FF68F731A404B881A4311
:10513000A04B984207D0A04B984204D04FF6FF43B3
:105140001A400B891A4302804B68C3620B8803859F
:10515000944B984202D0994B984201D18B7A0386A6
:105160000123838270474FF0FF31416000210180AD
:1051700001814180817270470185828270470A46B1
:10518000002101884FF68F73194011430180704749
:1051900041627047C16270470146486A70470146E4
:1051A000088D704721B1028842F00202028004E0BB
:1051B00002884FF6FD731A400280704721B10288C1
:1051C00042F00402028004E002884FF6FB731A40AA
:1051D0000280704721B1028842F08002028004E020
:1051E00002884FF67F731A400280704702884FF69C
:1051F000F7731A40028002880A43028070470288CF
:105200004FF6FF431A40028002880A43028070472B
:1052100021B1028842F00102028004E002884FF6C8
:10522000FE731A400280704770B5002400220023EC
:10523000058C4FF6FE7635400584028C8388048BFE
:105240004FF68F752C40B51E2C400D882C43751ED3
:105250002A408D892A434D882A43524DA84202D0C4
:10526000564DA84213D14FF6F7752A40CD892A43EF
:105270004FF6FB752A408D882A434FF6FF652B4079
:105280004FF6FF552B400D8A2B434D8A2B438380CD
:1052900004838D684563028470BD70B500240022CC
:1052A0000023058C4FF6EF7635400584028C838809
:1052B000048B48F6FF752C404FF6FF452C400D88B7
:1052C0004FF6FF7606EA05252C434FF6DF752A4098
:1052D0008D8906EA05152A434D8806EA05152A43F5
:1052E000304DA84202D0354DA8421DD14FF67F75F2
:1052F0002A40CD894FF6FF7606EA05152A434FF678
:10530000BF752A408D8806EA05152A434FF6FF35FA
:105310002B404FF2FF752B400D8A06EA85052B4383
:105320004D8A06EA85052B43838004838D68856357
:10533000028470BD70B5002400220023058C4FF656
:10534000FF6635400584028C8388848B4FF68F7509
:105350002C404FF6FC752C400D882C434FF6FF5522
:105360002A408D894FF6FF7606EA05252A434D88A7
:1053700006EA05252A430B4DA84202D00F4DA8424C
:1053800038D14FF2FF752A40CD894FF6FF7606EAF5
:1053900005252A434FF6FF352A408D8806EA052564
:1053A0002A4319E0000001400004004000080040CA
:1053B000000C0040001000400014004000040140B8
:1053C00000400140004401400048014000180040F6
:1053D000001C0040002000404EF6FF752B404DF6AB
:1053E000FF752B400D8A06EA05152B434D8A06EA08
:1053F00005152B43838084838D68C563028470BD4B
:1054000070B5002200230024058C4EF6FF7635404F
:105410000584038C8488828B48F6FF752A404FF6FA
:10542000FF452A400D884FF6FF7606EA05252A43F8
:105430004DF6FF752B408D8906EA05352B434D88C7
:1054400006EA05352B43FE4DA84202D0FD4DA84289
:1054500008D14BF6FF752C400D8A4FF6FF7606EA11
:1054600085152C43848082838D680564038470BD18
:10547000002101804180818081608181C181018220
:105480004182704770B5034600200024184618304A
:1054900001258D40ACB21D8CA5431D8409B108299E
:1054A0000AD100EB610005684FF68F763540056044
:1054B0000568154305600FE00D1FC5F34E05284430
:1054C000056848F6FF763540056005684FF6FF76BB
:1054D00006EA02263543056070BD4163704781636B
:1054E0007047C1637047016470470A460021018B11
:1054F0004FF68F7319401143018370470A4600210C
:10550000018B48F6FF7319404FF6FF7303EA02233D
:105510001943018370470A460021818B4FF68F7330
:1055200019401143818370470A460021818B48F658
:10553000FF7319404FF6FF7303EA02231943818377
:1055400070470A460021018B4FF6F773194011434B
:10555000018370470A460021018B4FF2FF73194007
:105560004FF6FF7303EA02231943018370470A468B
:105570000021818B4FF6F7731940114381837047E7
:105580000A460021818B4FF2FF7319404FF6FF73DB
:1055900003EA02231943818370470A460021018BE5
:1055A0004FF6FB7319401143018370470A460021EF
:1055B000018B4FF6FF3319404FF6FF7303EA0223C6
:1055C0001943018370470A460021818B4FF6FB7314
:1055D00019401143818370470A460021818B4FF6A1
:1055E000FF3319404FF6FF7303EA02231943818307
:1055F00070470A460021018B4FF67F731940114313
:10560000018370470A460021018BC1F30E014FF65A
:10561000FF7303EA02231943018370470A460021FE
:10562000818B4FF67F7319401143818370470A467F
:105630000021818BC1F30E014FF6FF7303EA0223B1
:105640001943818370470A460021018C4FF6FD7390
:1056500019401143018470470A460021018C4FF61E
:10566000F77319401143018470470A460021018CE9
:105670004FF6DF7319404FF6FF7303EA0213194325
:10568000018470470A460021018C4FF67F73194050
:105690004FF6FF7303EA02131943018470470A4669
:1056A0000021018C4FF6FF5319404FF6FF7303EAB8
:1056B00002231943018470470A460021018C4FF2EE
:1056C000FF7319404FF6FF7303EA02231943018465
:1056D00070470A460021018C4DF6FF7319404FF6C2
:1056E000FF7303EA023319430184704730B5002386
:1056F00001248C40A3B2048C9C430484048C02FAE1
:1057000001F5ADB22C43048430BD30B50023042430
:105710008C40A3B2048C9C430484048C02FA01F5EF
:10572000ADB22C43048430BD828B4FF2FF331A405C
:105730008283828B4FF6FF7303EA01231A4382832D
:105740007047F0B50C461546002100220026078C54
:105750004EF6FF7C07EA0C070784818B028C4FF61C
:10576000FF7707EA043640F6FF4739404FF6FF77E8
:1057700007EA052739434FF6FF7707EA033739432E
:1057800045F6FF773A4046F480573A4381830284D6
:10579000F0BD828B4FF6F3731A408283828B0A43EB
:1057A00082837047F0B50C46154600210022002682
:1057B000078C4FF6FF6C07EA0C070784818B028C7D
:1057C0004FF6FF7707EA04264FF60C7739404FF67D
:1057D000FF7707EA03172F4339434FF2FF573A4049
:1057E00046F480773A4381830284F0BD028B4FF206
:1057F000FF331A400283028B4FF6FF7303EA012343
:105800001A4302837047F0B50C461546002100226A
:105810000026078C4FF6EF7C07EA0C070784018B04
:10582000028C4FF6FF7707EA041640F6FF4739402F
:105830004FF6FF7707EA033739434FF6FF7703E068
:10584000000001400004014007EA052739434FF6F4
:105850005F773A4046F010073A4301830284F0BD77
:10586000028B4FF6F3731A400283028B0A430283C2
:105870007047F0B50C46154600210022068C4FF605
:10588000FE773E400684018B028C4FF60C76314049
:105890007E1C06EA03162E4331434FF6F57632405E
:1058A00044F00106324301830284F0BD70B5054621
:1058B0000C46208850B92389A28861882846FFF7C2
:1058C000D8FFE1882846FFF7CBFF25E02088042891
:1058D0000AD12389A28861882846FFF794FFE188CE
:1058E0002846FFF783FF17E0208808280AD123897C
:1058F000A28861882846FFF755FFE1882846FFF710
:1059000048FF09E02389A28861882846FFF719FF2C
:10591000E1882846FFF708FF70BD00210180418023
:10592000012181800021C180018170472DE9F04172
:1059300005460C4600260127608808B9022600E0CB
:105940000026A088012801D1022700E00127208835
:10595000A0B92389A28861882846FFF78AFFE188D9
:105960002846FFF77DFF23893A4631462846FFF750
:105970004AFFE1882846FFF739FF13E02389A28810
:1059800061882846FFF73FFFE1882846FFF72EFF92
:1059900023893A4631462846FFF76BFFE1882846BF
:1059A000FFF75EFFBDE8F0810146486B7047014696
:1059B000886B70470146C86B70470146086C70479A
:1059C0000A884B881A438B881A43CB881A430B8961
:1059D0001A434B891A438B891A43A0F84420704715
:1059E0000021018041808180C180018141818181CC
:1059F000704731B1B0F8442042F40042A0F844208E
:105A000005E0B0F84420C2F30E02A0F8442070472D
:105A100021B1828842F00402828004E082884FF63D
:105A2000FB731A408280704721B1828842F00102E4
:105A3000828004E082884FF6FE731A4082807047AD
:105A40001AB183890B43838102E083898B4383816D
:105A500070478182704702460020138A0B400BB1C9
:105A6000012000E000207047CA430282704730B531
:105A70000246002000230024158A05EA01039589C7
:105A800005EA010413B10CB1012000E0002030BD93
:105A9000CA430282704741EA0203A0F848307047C7
:105AA0001AB183890B43838102E083898B4383810D
:105AB000704721B1828842F00802828004E0828827
:105AC0004FF6F7731A408280704701894FF6F872DB
:105AD0001140018170470A46002101894FF68F73FA
